:020000040800F2
:10000000FF1F002091570008494D00084B4D000884
:1000100000000000000000000000000000000000E0
:100020000000000000000000000000004D4D00082E
:1000300000000000000000004F4D0008514D000876
:10004000E1570008E1570008E1570008E1570008B0
:10005000E1570008E1570008E1570008E1570008A0
:1000600000000000E1570008E1570008594D000862
:10007000E1570008E157000800000000E1570008C0
:100080000000000000000000000000000000000070
:10009000E157000800000000E1570008E1570008A0
:1000A00000000000E1570008000000000000000010
:1000B000E1570008E15700080000000000000000C0
:1000C00010B5064C2378002B07D1054B002B02D02E
:1000D000044800E000BF0123237010BDFC01002094
:1000E00000000000345C0008044B10B5002B03D066
:1000F0000349044800E000BF10BDC04600000000F6
:1001000000020020345C000802B47146490849002E
:10011000095C49008E4402BC7047C0460022430877
:100120008B4274D303098B425FD3030A8B4244D3BF
:10013000030B8B4228D3030C8B420DD3FF22090201
:1001400012BA030C8B4202D31212090265D0030BC0
:100150008B4219D300E0090AC30B8B4201D3CB03B6
:10016000C01A5241830B8B4201D38B03C01A5241F8
:10017000430B8B4201D34B03C01A5241030B8B42FA
:1001800001D30B03C01A5241C30A8B4201D3CB02E5
:10019000C01A5241830A8B4201D38B02C01A5241CA
:1001A000430A8B4201D34B02C01A5241030A8B42CD
:1001B00001D30B02C01A5241CDD2C3098B4201D3E5
:1001C000CB01C01A524183098B4201D38B01C01A63
:1001D000524143098B4201D34B01C01A52410309DA
:1001E0008B4201D30B01C01A5241C3088B4201D389
:1001F000CB00C01A524183088B4201D38B00C01A36
:10020000524143088B4201D34B00C01A5241411A5C
:1002100000D20146524110467047FFE701B5002069
:1002200000F006F802BDC0460029F7D076E7704717
:100230007047C0468446081C6146FFE71FB500F0C2
:1002400037FC002801D40021C8421FBD10B500F0C2
:10025000B9FB4042013010BD10B500F029FC002868
:1002600001DB002010BD012010BDC04610B500F01C
:100270001FFC002801DD002010BD012010BDC0467C
:1002800010B500F0C7FB002801DC002010BD0120E4
:1002900010BDC04610B500F0BDFB002801DA0020FB
:1002A00010BD012010BDC046002B11D1002A0FD176
:1002B000002900D1002802D00021C943081C07B43E
:1002C000024802A14018029003BDC04665FFFFFF2F
:1002D00003B4684601B5029800F006F8019B9E46FB
:1002E00002B00CBC7047C046F0B54F464646D646F5
:1002F000C0B5040082B00D00914698468B422FD8BD
:100300002CD04146484601F07BFA29000600200027
:1003100001F076FA331A9C46203B9A4600D576E0E7
:100320004B46524693401F004B46624693401E0088
:10033000AF4228D825D05346A41BBD41002B00DA7C
:100340007BE0002200230092019301235246934058
:100350000193012362469340009318E08242D0D972
:1003600000220023009201930A9B002B01D01C6005
:100370005D600098019902B01CBC90469946A24667
:10038000F0BDA342D7D90022002300920193634617
:10039000002BE9D0FB079846414672080A437B08C8
:1003A00066460EE0AB4201D1A2420CD8A41A9D4190
:1003B000012024196D410021013E24184D41002ED9
:1003C00006D0AB42EED9013E24196D41002EF8D182
:1003D00000980199534600196941002B23DB2B003B
:1003E0005246D3402A006446E2401C0053461500A2
:1003F000002B2DDB26005746BE4033002600674603
:10040000BE403200801A994100900191ACE76246EB
:1004100020239B1A4A46DA406146130042468A402E
:1004200017001F4380E7624620239B1A2A00664676
:100430009A402300F3401343D4E76246202300216F
:100440009B1A0022009101920122DA40019280E77A
:100450002023624626009B1ADE402F00B0466646E7
:10046000B74046463B003343C8E7C046F8B5474669
:10047000CE4643025B0A4400C20F9C464800DD00A2
:100480004B02240E5B0A000E80B59846260091466A
:10049000C90FDB00271A8A4229D0002F15DD00285A
:1004A0004AD1002B00D095E0ED08FF2C00D188E068
:1004B0006B025B0AE6B25B02F605580A3043D207CC
:1004C00010430CBC90469946F8BD002F00D087E041
:1004D000601CC0B2012800DCB6E0EE1A720100D543
:1004E000C5E0002E3DD1002200260023E3E7002FC7
:1004F00000DC96E000285DD0FF2C60D08022D20482
:1005000013431B2F00DDECE02022D21B1800934088
:10051000F8405A1E93410343ED186B017BD501341B
:10052000FF2C00D1B7E0012207262A406B089A4D24
:100530001D4015432E4029E0FF2CB5D08022D20467
:1005400013431B2F00DDB2E02022D21B1900934081
:10055000F9405A1E93410B43ED1A6B015BD5AD0177
:10056000AE09300001F02EF905388640844265DC82
:10057000041B330020200134E340041BA640751EF9
:10058000AE41334307261D0000241E4001224B4686
:100590001A40002E04D00F232B40042B00D004352A
:1005A0006B0100D480E70134E6B2FF2C2FD1FF2687
:1005B000002380E7002B52D1FF2C00D074E70A0003
:1005C000ED08002DF3D08023DB032B435B025B0A95
:1005D000FF2670E7013F002FBED0FF2CB1D163E7AB
:1005E000002C47D0FF2869D08024E4047A422543B8
:1005F0001B2A00DDC5E02C002026D440B21A95400D
:100600006A1E954125435D1B04008946A5E7AB01A1
:100610005B0A50E7002401224B461A406B07BAD10F
:1006200042E7002F3BD10134E0B201284ADDFF2C24
:10063000BDD00726ED186D082E40A7E70723574DBC
:10064000241A35401E40A1E7002C1BD1002D6ED18D
:10065000002B00D19AE00A001D003C0024E7013F76
:10066000002F00D158E7FF2C00D04AE7A7E75E1B18
:10067000894676E7002D1CD10A00FF281FD0040010
:100680001D0011E7002D5DD1002B17D18023002222
:10069000DB03FF260FE70A00FF2600230BE7002CF1
:1006A00021D1002D66D1FF28E9D11D0087E7012364
:1006B00052E77A1CA7D0FA43FF2899D10A001D00FF
:1006C000FF24F1E6002E21D1002D4FD0002B4CD07D
:1006D000ED186B019ED5314B07362E4001241D408D
:1006E00054E7012318E7FF28DFD08024E4047F4289
:1006F00025431B2F4DDC2026F61B2C00B540FC406B
:100700006A1E95412543ED18040006E7002DCCD064
:10071000002B00D153E780216046C903084203D073
:100720004046084200D11D000121114047E7002B3F
:1007300000D1B9E6EA1A500125D507265D1B2E40E7
:10074000894623E7FF24002B00D1ADE680226046D6
:10075000D203104204D04046104201D11D00894608
:1007600001224B46FF241A409EE62B00DD080A00BA
:1007700000249DE67A1CC6D0FF43FF28B9D11D0096
:100780001DE701253FE7151E00D044E700220023A6
:1007900091E60125B7E7C046FFFFFF7DFFFFFFFBA6
:1007A000F8B557464E464546DE464402E0B546009B
:1007B0008846640A360EC70F002E63D0FF2E24D061
:1007C0008023E400DB041C43002399469B467F3EC4
:1007D000434642465D02D20F5B006D0A1B0E9046F7
:1007E000924665D0FF2B55D080220021ED00D20427
:1007F0007F3B1543F61A43464A467B400F2A00D9F1
:100800008DE06D48920082589746002C54D1082301
:100810009946063BFF269B46DAE700255346022908
:100820001BD0032900D1BFE0012928D030007F3040
:10083000002820DD6A0704D00F222A40042A00D0B5
:1008400004352A0103D530005C4A80301540FE286B
:1008500003DCAC01640AC2B201E0FF22002464029E
:10086000D205600ADB07104318433CBC904699460A
:10087000A246AB46F8BD0122101A1B287CDD0022DF
:100880000024ECE7002C1DD104239946033B0026ED
:100890009B469DE7FF3E002D20D1022143464A465C
:1008A0007B400A430F2AD8D8454892008258974681
:1008B000002D19D10121F1E70C239946093BFF26B0
:1008C0009B4685E7200000F07DFF7626431F9C4075
:1008D00000237642361A99469B4679E74A46032317
:1008E0001A439146032186E7280000F06BFF431F5F
:1008F00036189D40763600217DE780240023E403EE
:10090000FF22ACE700258023DB031C4228D01D42D8
:1009100026D12B435C02640A4346FF229FE7620113
:100920006C01A24224D21B210025013E01271000A8
:100930006D005200002801DB944201D8121B3D4398
:1009400001390029F3D11400621E944125436DE75B
:10095000BA46594625005346022900D061E77CE794
:100960008023DB031C436402640A3B00FF2276E71A
:10097000121B1A210125D9E79E362A00B5402C000A
:10098000C240651EAC411443620704D00F222240CE
:10099000042A00D00434620103D4A401640A0022B2
:1009A0005DE7012200245AE78024E4032C4364021B
:1009B000640AFF2253E7C0464C5C0008FFFFFFF7C4
:1009C0008C5C000870B542004E024C0045026D0A76
:1009D000120EC30F760A240EC90FFF2A0FD0FF2C68
:1009E00011D00120A24200D070BDB542FCD18B4293
:1009F0000DD0002AF8D12800451EA841F4E70120B7
:100A0000002DF1D1EBE70120002EEDD1E9E7002028
:100A1000EAE7C04670B54A004E02450244006D0A3E
:100A2000240EC30F760A120EC90FFF2C15D0FF2A11
:100A30000ED0002C15D1002A01D1002E1CD0002D83
:100A400014D08B4227D00220013B1840013870BDE2
:100A5000002EEED002204042F9E7002DFAD1FF2A05
:100A60000ED0002A0ED1002EEDD00BE0012301396B
:100A7000994308000130EAE70020002DE7D0E2E7C3
:100A8000002EE7D18B42DED1944205DD0221581EB3
:100A900008400138DBE70024A24204DCB542D2D88A
:100AA0000020B542D3D2581E012398430130CEE72F
:100AB00030B5420044024D02C30F4800640A120ED2
:100AC0006D0A000EC90FFF2A12D0FF280CD0002A91
:100AD00012D1002819D1002D17D1002C2BD00220C3
:100AE000013B1840013826E0002DF0D0022022E022
:100AF000002CFBD1FF281FD000281FD1002D1DD1B5
:100B00000220013B1840013815E0002C0ED08B422A
:100B1000E5D10022904204DCAC42E0D80020AC4297
:100B200009D2581E01239843013004E00123013902
:100B300099430800013030BD002DD7D18B42CED172
:100B40008242E7DD0221581E08400138F3E7C04623
:100B5000F0B54E4657464546DE46E0B543025B0AD1
:100B6000450083B00F1C99462D0EC60F002D57D09F
:100B7000FF2D24D08020DB00C004184300238146D1
:100B80009A469B467F3D7C027A00FB0F640A120E58
:100B9000984623D0FF2A4BD0E30080240020E404B1
:100BA0007F3A1C43AD186B1C474601935346774070
:100BB0003A000F2B48D87D499B00CB589F46002B0D
:100BC00000D085E008339A46063B9B467C027A00BB
:100BD000FB0FFF25640A120E9846DBD1002C00D0D3
:100BE00090E0524601231A4392460120DBE74C462F
:100BF00058461700022824D0032800D1CFE0002255
:100C0000002301284DD15802D205400AFF071043A6
:100C1000384303B03CBC90469946A246AB46F0BD73
:100C2000002B5BD104239A46033B00259B46AAE791
:100C3000FF35002C60D1524602231A43924602200F
:100C4000B1E7FF220023DEE74B461B0C9C464B46D8
:100C50002604360C180461463300220C6446000C4E
:100C600043434E435043544380191A0C1218964282
:100C700003D9802149028C4664441B041B0C1004D8
:100C8000C01883015E1EB341800E1843130C1B195C
:100C90009B0103431C00230179D5012362081C40FA
:100CA0001443019A7F32002A4DDD630704D00F23DD
:100CB0002340042B00D00434230103D53C4B019A7C
:100CC0001C408032FE2ABCDCA3015B0AD2B29AE748
:100CD0000C239A46093BFF259B4654E7180000F079
:100CE00071FD4A46431F76259A4000236D42914686
:100CF0002D1A9A469B4646E7524603231A439246CC
:100D0000032050E7200000F05DFD431F2D1A9C409A
:100D1000763D002047E780230027DB03FF2272E7B0
:100D2000424666E74C463200584662E780234A4610
:100D3000DB031A4222D01C4220D123435B025B0A10
:100D40004746FF225FE701239A1A1B2A21DC230072
:100D50000199D3409E318C401A0023005C1EA341B0
:100D600013435A0704D00F221A40042A00D0043338
:100D70005A0111D49B015B0A002244E780234A46B2
:100D8000DB0313435B025B0A3700FF223BE701955D
:100D900087E70022002336E70122002333E7802380
:100DA000DB0323435B025B0AFF222CE7CC5C0008D9
:100DB000FFFFFFF7F8B54746CE464400C20F80B5A7
:100DC00047024802400A8446664648007F0A240ECD
:100DD000F60025009046FB00000EC90FB146FF2823
:100DE00000D185E001267140261A914257D0002E8D
:100DF00043DD002800D07FE04946002900D1AAE069
:100E0000013E002E00D0F7E05B1A5A0100D48BE0BF
:100E10009B019C09200000F0D5FC053884408542E8
:100E200000DDD3E0451B230020200135EB40451BAE
:100E3000AC40621E94412343072400251C4001223C
:100E400041460A40002C04D00F211940042900D04B
:100E50000433590100D480E00135ECB2FF2D00D0FD
:100E6000A3E0FF2400235B02E405580AD2072043D5
:100E700010430CBC90469946F8BD002E74D1601CFE
:100E8000C0B2012800DCA7E04A469C1A620100D5E6
:100E9000B6E0002CBED1002200240023E3E7002EA0
:100EA00000DC85E0002846D0FF2C49D0802248464F
:100EB000D2041043814601221B2E09DC20204C461F
:100EC000801B84404A462000F240441EA041024359
:100ED0009B185A0128D50135FF2D00D1A8E0012229
:100EE000072494491A405B080B4013431C40A6E7B3
:100EF000002E00D078E775E7FF2C54D080224946B9
:100F0000D2041143894601221B2E09DC20214846C8
:100F1000891B88404A460100F240481E81410A432D
:100F20009B1A5A0100D573E7012241460A4059072E
:100F300000D089E711E04846002858D1FF2C0CD199
:100F4000DB08002B00D18CE78020C00303435B0249
:100F50005B0AFF2487E7FF2C25D0DB08FF2DF0D0AC
:100F60005B025B0AECB27EE7002C4DD0FF2818D064
:100F70008024E404724223431B2A00DDC4E01C00E9
:100F80002025D440AA1A93405A1E934123434A462F
:100F90000500D31A884638E7721CF8D0F243FF28C0
:100FA000EAD10A004B46FF25D7E79B015B0A5AE7C7
:100FB000002E41D1651CE9B2012945DDFF2D00D18C
:100FC0004FE707244B445B081C4038E707225A4B85
:100FD0002D1A2340144032E7002C1DD1002B7AD16A
:100FE0004B46002B00D191E00A000025B5E7013EF9
:100FF000002E19D14B446CE7FF2C84D1FF25ACE7C0
:101000004A468846D41A05E7002BC5D10A00FF28B6
:10101000C8D005004B46A0E7002B49D14B46002B1A
:1010200077D00A00FF2598E7FF2C00D043E787E739
:101030000A00FF24002316E7002C15D1002B57D1FE
:10104000FF28E6D14B467BE7002C20D1002B57D060
:101050004946002953D04B445A0168D50724364AE3
:101060001C4001251340EAE6FF28EBD08022D20481
:10107000764213431B2E53DC2025AD1B1A00AB40D8
:10108000F2405C1EA34113434B44050021E7002BB3
:10109000D8D04946002900D152E78021C9030F4228
:1010A00000D14DE76046084200D049E74B4647E78C
:1010B0004846FF25002800D14FE78022D20317427F
:1010C00004D06046104201D14B4688460122414679
:1010D000FF250A4041E7484600281FD01A1A500150
:1010E00020D54A460724D31A1C4088460025A6E688
:1010F000741CC9D0F643FF28BCD14B4620E7994663
:101100004B460025DB082BE7012340E700220023A4
:10111000A9E680230022DB03FF24A4E600251CE7C8
:101120000123B1E7002AF1D013000025FCE60025D9
:10113000FAE6C046FFFFFF7DFFFFFFFB70B500280A
:101140003DD0C317C5185D40C40F280000F03AFB1E
:101150009E22121A962A07DCD2B2082833DD0838FC
:1011600085406802400A23E0992A0BDD0523290007
:101170001B1AD94003001B339D402B005D1EAB4161
:1011800019430D00052801DD431F9D402B000F4929
:101190000B406E0709D00F263540042D05D00433CF
:1011A0005D0102D59F220B40121A9B01580AD2B250
:1011B0004002D205400AE4071043204370BD0024DA
:1011C00000220020F4E76802400AF1E7FFFFFFFB7E
:1011D000F0B55746DE464E464546E0B58346060026
:1011E0000F03480087B092461D003F0B400DCC0F07
:1011F000002800D16FE0DE4B984238D08023FF00FA
:101200001B041F43730F3B430193DA4B002799469E
:1012100000239B46F60081442B0369001B0B5246BA
:101220009846490DED0F002900D185E0D04B994239
:1012300000D173E04346DA0080231B041343524677
:10124000CC48520F84461343524600206144D200DA
:1012500089442100694000918C46012149448A4615
:101260000F2F00D990E0C449BF00CF59BF465B465D
:101270003B43019300D06AE1022308270026814600
:101280009B46C9E732005846019B614600910228FF
:1012900000D175E0032800D1FEE1012800D02CE147
:1012A00000230027002600253F032A0D3F0BB348EB
:1012B00012053A4302401B051343009A5B00D10715
:1012C0005B080B433000190007B03CBC90469946C0
:1012D000A246AB46F0BD5B463B43019300D12FE1F4
:1012E000002F00D1A5E1380000F06CFA03000B3BA1
:1012F0001C2B00DD96E11D22D31A5A460100DA406C
:101300005E4608398F4013008E403B4301939C4B4F
:1013100000271B1A994600239B467DE7414653460A
:101320000B4393498C46E144002B00D01AE1022282
:101330000220174300228CE7134300D10DE14346FE
:10134000002B00D181E1404600F03CFA02000B3A4C
:101350001C2A00DD72E10100434608398B409846A3
:101360001D239A1A5346D3401A004346134352464C
:101370008A404946081A824989468144002068E724
:101380007B4B002700268EE7140C1204120C110070
:10139000370C3604350C794328008C462E00604308
:1013A0006044834656432100300C804658467943BA
:1013B00040440291844506D98846802149028C46E2
:1013C000E044414602913604010C360C00048B4681
:1013D00081191E0C1B041B0C0391190079438C46C8
:1013E000280075436544A8465843050C4544774397
:1013F000A94203D9802149028C466744290C8C46B6
:1014000039000004000C2D042D186144AB440591F3
:101410005946049101990F043F0C080C39005143BF
:101420004243904602008C46090C8B4662437C4343
:1014300044445C44A04503D9802149028846424483
:10144000210C884661460904090C8C463900594331
:10145000434370437E430F0CF6182404BE196444C2
:1014600042448C46B34203D980235B0298464044F1
:10147000029B61469846049B370443449B46AB4518
:10148000AD416B420D0405992D0C8C467F196744C4
:10149000FD18A8465D462D19A542A4419346644215
:1014A000A446C344DC448F42BF4198459B419345C9
:1014B0009241A445A4415B427F421F43360C5242F5
:1014C0006442BF192243BF18624638184302D20D46
:1014D000039913436A020A43501E82416146ED0D8F
:1014E0002A434E023243D90100D4B3E0012650080A
:1014F00032400243DE0732435B08224C5444002C46
:1015000062DD510709D00F201040042805D0101DBE
:101510009042924152429B180200D90104D5802486
:101520001948E400034054441848844200DD27E78A
:101530005E075B02D2081F0B630516435B0DB2E624
:10154000002399460133042700269B4664E60323C3
:10155000019781460C279B465EE601220120174336
:10156000002276E6032303201F43434671E6C0466C
:10157000FF07000001FCFFFF0C5D0008FFFF0F806C
:101580000DFCFFFFFF030000FFFFFFFEFE07000052
:101590000023802700933F030026434B83E6019BF3
:1015A0003200A446584670E6AC466EE680270199A4
:1015B0003F0339422DD03B422BD11F433F033F0B0A
:1015C00000951600384B6EE601252D1B382D00DDE9
:1015D00066E61F2D40DC35481C0050441600824052
:1015E0008440EE40501E824134431443EB40620776
:1015F00009D00F222240042A05D02200141D944253
:10160000804140421B181A023ED5012300270026C4
:1016100049E68027019B3F031F433F033F0B009494
:10162000214B40E603005A46283B9A40002601928F
:101630006DE6584600F0C6F8203057E603005246E3
:10164000283B9A401300002293E6504600F0BAF877
:1016500020307BE6CA4650E71F201E004042041B94
:10166000E640202D03D0124C5444A3401A43501E90
:101670008241324307260027164009D00F2000235D
:10168000104014000428B9D122005E075B021F0B32
:10169000D2081643002306E680273F031F433F037B
:1016A0003F0B1600004BFEE5FF0700001E04000084
:1016B0003E04000030B5144D0A034B00120B5B0DC5
:1016C000C90F0024AB4211DD104CA34210DC802472
:1016D000640322430E4CE41A1F2C0CDD0D48C31A80
:1016E000DA4013005C42002900D11C00200030BD0C
:1016F000094BCC18FAE7094DE040AC4663449A40E8
:1017000013000343EEE7C046FE0300001D04000083
:101710003304000013040000FFFFFF7FEDFBFFFF19
:101720004100090E4B1C70B5DBB24602750AC40FAE
:10173000012B14DDE0239B006D07360BCB18002135
:101740000A0D280012051C4D32435B052A405B0838
:1017500013435B00E4075B082343190070BD0029B5
:1017600014D1002D1ED0280000F02CF80A281CDC13
:101770000B232A001B1ADA40030015339D400F4B40
:1017800012031B1A5B05160B5B0DD8E7002D06D064
:10179000320B802636036D071643094BCFE7084B03
:1017A0000026CCE700230026C9E703002A000B3BF4
:1017B0009A400025E3E7C046FFFF0F808903000041
:1017C000FF0700001C2101231B04984201D3000CD9
:1017D00010391B0A984201D3000A08391B099842A4
:1017E00001D30009043902A2105C40187047C046BA
:1017F00004030202010101010000000000000000DA
:1018000010B5002903D1FFF7DDFF203002E0081CEE
:10181000FFF7D8FF10BDC04670470000012210B589
:101820000024074B52429A629C625A625C621A62BE
:101830001C62DA61DC61FFF7EFFF200010BDC046DB
:1018400000100240FA210A4B70B5890005001868A3
:10185000FEF764FC00F0BEFB04000120002C05D163
:1018600002382200290000F081FB200070BDC04634
:10187000240000204023084A10B5116800200B43C3
:101880001360FFF7DFFF041E03D103F0CDF8200043
:1018900010BD0124FBE7C04600200240024A136845
:1018A000013313607047C04658020020014B18688E
:1018B0007047C04658020020084B13B50400084981
:1018C0001868FEF72BFC44430194019B002B00D1C8
:1018D00013BD019B013B0193F7E7C04624000020A4
:1018E00040420F000321036870B59A6804000A4063
:1018F000012A04D11968114201D0002070BD9968F5
:10190000134A114208D010230120626D134363650E
:10191000A36D0343A365F1E701259A6828002A43D4
:101920009A60FFF7C9FFFFF7C1FF060023681B6835
:101930002B42E2D1FFF7BAFF801B0A28F6D9102309
:10194000626D012013436365A36D1D43A565D5E753
:10195000170000800321036870B5040098680840F0
:10196000012801D0002070BD1A680242FAD0052279
:101970009D681540012D19D19868033A02439A6079
:101980001960FFF793FF060023689B682B42E9D09C
:10199000FFF78CFF801B0A28F6D91023626D012007
:1019A00013436365A36D1D43A565DCE71023626DDA
:1019B00013436365A36D0343A365D4E7042203685F
:1019C00070B599680400114201D1002070BD99687A
:1019D000114206D09A68920703D4102299680A43EC
:1019E0009A60FFF763FF0425060023689B682B427B
:1019F000EBD0FFF75BFF801B0A28F6D910230120EC
:101A0000626D13436365A36D0343A365DEE70000C6
:101A100070B504000120002C19D0636D002B06D195
:101A200022005032A3652000137003F00BF8636DA1
:101A3000DB0604D4042223689868104008D01023E1
:101A4000626D01201343636500235034237070BD21
:101A5000626D5549114002220A436265032299686A
:101A60001140524A012902D11D680D4219D1802628
:101A70006168F6054D006D08B54203D080252D063E
:101A8000A94276D11D69AD00AD081D611D692943CC
:101A900019611825D968A943D960D968A56829436F
:101AA000D9601168424D29401160616B1568490683
:101AB00029431160802299685205114202D1996828
:101AC0000A439A60DA683B490A402169DA60DD68B6
:101AD000E268022900D10420266B611C32432A43AC
:101AE000A569C97FAD032A43E569ED032A434D0388
:101AF0002A4325002C352D786D002A430243C2204D
:101B0000DA60626AFF30824204D0A56AD8682A434C
:101B10000243DA60A21CD27F012A06D1002934D107
:101B20008022D96852020A43DA60E16B1A690129FE
:101B300033D12148656C02401A61226C18692A432E
:101B4000A56C2A4302431A611A69114319610721DE
:101B50005A6900208A435A615A69A16B0A435A6143
:101B60000322A065636D93431A0001231343636549
:101B70006DE71D69114EAD00AD081D61156835405A
:101B8000156015682943116083E72021606D0143CA
:101B90006165A16D0A43A265C7E701210A42D6D05B
:101BA0001A698A431A61D2E7FDFEFFFF0827014048
:101BB000FFFFFFFD1902FEFF03FCFFFFFFFFC3FF56
:101BC00070B504000125002811D00223426D134393
:101BD0004365FFF7F3FE051E37D12000FFF7BAFE7D
:101BE0000500012805D10125002350342370280069
:101BF00070BD01236365236815495A6820000A40B7
:101C00005A60144A14491A609A680A409A60DA685D
:101C100012490A40DA601A6911490A4007211A611B
:101C20005A698A435A611A6A0E490A407F211A6228
:101C3000B4331A688A431A601A688A431A6002F039
:101C40002BFF0023A3656365CEE70128CBD0D2E745
:101C500060F7FFFF9F080000FFFFFFEF00023E83D9
:101C600002FCFF3F00F000F0036870B59B680400C1
:101C700002205B071AD4250050352B78012B15D094
:101C800001232B70E369012B11D1636D0B4A0020F6
:101C90001A4080235B0013431C2263652368A06500
:101CA00028701A609968183A0A439A6070BD20003B
:101CB000FFF718FE0028E8D0F8E7C046FEF0FFFF67
:101CC00070B506005036337804000220012B12D084
:101CD000012520003570FFF771FE002809D1200092
:101CE000FFF738FE002804D1636D034A13401D43FB
:101CF00065650023337070BDFEFEFFFFF8B54569D2
:101D000004000E00082D0DD003680120DB680C25AF
:101D1000034207D02023626D5034134363600023D5
:101D20002370F8BDFFF7C2FD070023681A6815424B
:101D300024D08022616D92000A436265C022D96876
:101D40001201114213D1621CD27F002A0FD11A68EE
:101D500012070CD59A68520723D40C215A688A437B
:101D60005A60626D1349114001220A4362650020E6
:101D7000A2698242D5D10C221A60D2E7721CD5D05A
:101D8000002E08D10423626D503413436360002396
:101D900003202370C5E7FFF789FDC01BB042C4D9FB
:101DA000F0E72022616D0A4362650122A16D0A43BA
:101DB000A265DCE7FEFEFFFF0368186C70470000B9
:101DC000F8B504005034237806000D000220012BE2
:101DD0000BD032680138916820704B0706D520225D
:101DE000716D0A43726500222270F8BD8023286855
:101DF000194E6F684103DB02490B0340B74219D00B
:101E0000906A01439162002B08D08023134A1B047F
:101E100011680A200B431360FFF74EFD2B689B03EC
:101E200005D580230D4ADB0311680B4313600020A6
:101E30002070DAE7956A8D439562002B04D0074A3B
:101E4000074913680B4013608303F0D5034A054923
:101E500013680B40EAE7C046011000000827014064
:101E6000FFFF7FFFFFFFBFFFF8B5050050352B7860
:101E700004000220012B44D0012303222B7023688D
:101E800098681040012809D11A68024206D0202320
:101E9000626D1343636500232B7032E0626D194954
:101EA000114002220A4303216265DE68DA688A4330
:101EB000DA608022996812060A439A60FFF7F6FCFE
:101EC000070023689A68002A0CDB0322D9681640B1
:101ED0000E43DE60636D002093431A000123134319
:101EE0006365D8E7FFF7E2FCC01B0A28E9D9122294
:101EF000636D012093431A0010231343636500238D
:101F00002B70F8BDFDFEFFFF0368B43318687F2314
:101F10001840704730B5050050352B78040002207A
:101F2000012B19D0012321682B708B6801300340ED
:101F3000012B12D1086818420FD004208B6803408F
:101F40000BD17F24B4310868A043086008680243BD
:101F500018000A6000232B7030BD10230120626D31
:101F600013436365A26D0243A265F3E730B5FF2515
:101F700003242A00C3B21C40E400A2408901294086
:101F8000D243A14000280BDA0F200340083B0A4847
:101F90009B089B001B18D86902401143D96130BDD2
:101FA000064B80088000C018C0239B00C458224004
:101FB0001143C150F3E7C04600ED00E000E100E04E
:101FC0001F2318401E3B8340014A13607047C046E0
:101FD00000E100E0094A431E012093420DD8C021D0
:101FE000074A08485360036A09061B021B0A0B4391
:101FF000036200200723906013607047FFFFFF001B
:1020000010E000E000ED00E0F8B504000120002C35
:1020100035D025681A4B1421E818FEF77FF8194BC4
:10202000800023640223A21D6064D3772E68164BC0
:10203000A1681E40E36827690B433B4367693B4344
:10204000A7693B43E7693B43276A3B4333432B6024
:102050008023DB0199420CD01C2528400D3D854092
:102060000A490B68AB430B6063680D6883402B43E0
:102070000B6000200123E0630534D377E077F8BDDF
:10208000F8FFFDBF000002400F80FFFFA8000240E4
:1020900070B5012504002800002C21D026681421E9
:1020A0003368AB4333600F4BF018FEF737F81C2151
:1020B000830063640B4000209D400D3999400A4A1B
:1020C000A31D226430605560084D2A688A432A6047
:1020D000E06220636063A063E0630534D877E07753
:1020E00070BDC046F8FFFDBF00000240A8000240DE
:1020F000F7B5441DE67F05000220012E23D00138EC
:10210000E077A81DC67F8446F6B202200027012E84
:102110001DD16446E0772C68EF6320681C37B0431C
:102120002060286C0190686C0740BE4001984660B2
:102130006360AB68102B07D1A260E160012300202F
:10214000226813432360FEBDA160E260F6E7E777F3
:10215000F9E7F8B51C220427466C016C32403E00BA
:1021600096400D6803681C6835420DD03C420BD088
:102170001A68920602D41A68BA431A60036B4E605A
:10218000002B19D0984717E002273E0096403542B1
:1021900013D03C4211D01A68920606D40A241A6859
:1021A000A2431A600122831DDA770022431D4E608C
:1021B000DA77C36A9342E5D1F8BD08263700974025
:1021C0003D42F9D03442F7D00E251C68AC431C6068
:1021D00001231C009440821D4C60C363D37700220E
:1021E000431DDA77436BE5E7F0B54F4A0B68821879
:1021F000541EA24187B00393002305320592039A2F
:10220000DA4001D107B0F0BD01259D40039A2A4074
:10221000029200D186E04A6801921022019E964304
:10222000022E0FD1DA08920007248218176A04924E
:102230000F221C40A400A24097430A69A240174302
:10224000049A176203225F00BA40013ED243012E76
:102250000ED8CC688668BC4016403443846044681D
:10226000AC432500019CE406E40F9C402C434460F1
:102270000324019D06682540BD4016403543056096
:10228000C5682A408D68BD402A43C260019AD200C9
:1022900048D50127254D1C406A6BA4003A436A6368
:1022A000234A9D08AD00AD180F22A240AE689643A8
:1022B000A022D20594460022604509D01D4A9446CA
:1022C0003A00604504D01C4F9218B84200D0059ADD
:1022D000A2403243AA60194A029C1668029D019FDF
:1022E000E4433543FF0301D43500254015605668AB
:1022F000029D019F3543BF0301D435002540556041
:102300009668029D019F3543FF0201D435002540A8
:102310009560D568029E019F2E43BF0201D42540DF
:102320002E00D66001336AE700E4FFAF00100240E0
:10233000000001400004005000080050000401406B
:10234000F0B5314A85B082180291511E8A410023AE
:1023500005320392029ADA4001D105B0F0BD0122A4
:102360009A4094466146029A0A40019249D0032558
:102370005C00A5400F24072622001E40B600B24094
:10238000016829430160D908ED43890041180F6AAB
:10239000974362460F628168A027294081604168A7
:1023A000FF0591434160C168184A0D4099088900B2
:1023B000891803221A4092009440C5608E68002557
:1023C0002640B84208D0124F0135B84204D0114F10
:1023D0000135B84200D0039D9540B54211D18A68BD
:1023E000A2438A6001990C4AC94314680C401460E6
:1023F00054680C40546094680C409460D468214048
:10240000D1600133A6E7C04600E4FFAF0000014001
:10241000000400500008005000040140002A01D0D0
:10242000816170478162FCE770B504000120002CD7
:102430003FD0250041352B78DBB2002B05D122009F
:1024400040321370200002F03DFB242301212B7049
:102450002368E0681A68A6688A431A6061681A4AA5
:102460000A401A619968194A11409960012821D1DE
:102470008021090231439960586815490143596028
:10248000D96800200A40DA60616922690A43A169BB
:1024900009020A43DA60216AE2690A431A600122EA
:1024A00019680A431A60202360642B702063423449
:1024B000207070BD84210902314399600228DBD16C
:1024C000802109015960D7E7FFFFFFF0FF7FFFFF81
:1024D0000080000270B504000120002C13D02500FC
:1024E0002423226841352B70136883431360200036
:1024F00002F018FB00202300606442332870206340
:1025000040341870207070BDF0B50400413422785A
:102510000300D2B20220202A18D11D0040352E78A7
:10252000012E13D01B68223020701E68233886438A
:102530001E601E68064F3E401E601E6831431960D3
:10254000196808431860002022702870F0BDC0464A
:10255000FFEFFFFFF0B5050041352A780300D2B246
:102560000220202A17D11C0040342678012E12D0D8
:102570001B68223028701E68233886431E601E6840
:10258000054F09023E40314319601968084318603D
:1025900000202A702070F0BDFFF0FFFFF7B52D4C32
:1025A0002D4A636880261A40B0231B0213436360E0
:1025B000802322685B0013432360FFF777F905004F
:1025C000B600236833422FD003220C26E3689343DE
:1025D000E360E06830402FD1204B214A1A60FFF7BA
:1025E00031F9051E26D123681E4A80261340802219
:1025F00023602368520213400193019B1A4A236807
:10260000B60413402360FFF751F9070023683340F5
:1026100019D1E3602361C023FF33A3618023226DBE
:102620001B041343236505E0FFF740F9401B022814
:10263000C7D903252800FEBDFFF738F90B4B401B17
:102640009842C6D9F5E7FFF731F9C01B0228DDD95A
:10265000EFE7C04600100240FF00FF00240000200A
:1026600068FF1F00D4FFF6FEFFFFFBFF881300008A
:102670000C22194B10B5D9680A40082A29D00C2A17
:1026800009D0042A1DD11868144BC006C017184081
:10269000134BC01810BD8A021248120F825C090247
:1026A000D868890F0131C00304D50F485043FDF7A6
:1026B00035FDEFE71B68DB0601D50C48F6E7084857
:1026C000F4E780205B6800021B045B0F0133984035
:1026D000E0E70548DEE7C0460010024000E548FF9D
:1026E0000024F400FE5D000800127A0000093D009D
:1026F000F0B5050087B0002802D1012007B0F0BD79
:102700000C23C04CE668E2681E4080235B021A403E
:1027100001920268D2073DD42B689B0700D583E065
:102720002B68DB0628D5002E00D0DDE023689B0552
:1027300002D5AB69002BE0D06268B3492B6A0A402E
:102740001A4362606168EA690902090A12060A43CB
:10275000626080225B0B013312029A401300E16831
:1027600000200A06A949120F8A5CD340A84A1360C8
:10277000FFF768F80028C1D12B681B0700D5EAE0F5
:102780002B685B0700D50CE16B6A002B00D091E150
:102790000020B3E7082E04D00C2E09D1019A002A9C
:1027A00006D023689B03B7D56B68002BB4D1A4E790
:1027B0006A689A4211D1226813432360FFF776F8C2
:1027C00007008022236892021342A5D1FFF76EF81A
:1027D000C01B6428F5D9032090E7A021C9028A42D2
:1027E00005D180222168D2020A432260E3E72168F2
:1027F00088480140216021680B400593059B86496C
:1028000023680B402360002AD8D1FFF74FF8070058
:10281000802223689202134200D17DE7FFF746F839
:10282000C01B6428F4D9D6E72022EB68134203D0FA
:102830002168934311432160042E04D00C2E25D12E
:10284000019A002A22D12268520702D5002B00D11A
:1028500053E761682A697148120201400A4309215D
:10286000626022688A4313432360FFF701FFE36835
:10287000664A1B061B0FD35CD840654B18600020CE
:10288000FEF7E0FF002800D14AE737E7002B19D018
:10289000092122688A4313432360FFF707F80700E2
:1028A00004222368134207D062682B695B491B022C
:1028B0000A401343636033E7FEF7F8FFC01B0228AA
:1028C000EED988E70122236893432360FEF7EEFFE9
:1028D000070004222368134200D121E7FEF7E6FF38
:1028E000C01B0228F5D976E7AB69002B20D08023E6
:1028F00022685B0013432360FEF7D8FF07008022A5
:102900002368920013420DD063683F4A13402A6A3D
:10291000134363606268EB6912021B06120A1343D9
:10292000636029E7FEF7C2FFC01B0228E7D952E720
:1029300023683B4A13402360FEF7B8FF070080225C
:1029400023689200134200D116E7FEF7AFFFC01BC9
:102950000228F4D93FE76A690123002A10D0226DCA
:1029600013432365FEF7A2FF07000222236D1342E3
:1029700000D005E7FEF79AFFC01B0228F5D92AE729
:10298000226D9A432265FEF791FF07000222236D14
:10299000134200D1F4E6FEF789FFC01B0228F5D9E7
:1029A00019E780230021A26B5B0501911A4204D133
:1029B000A26B1343A363012301938022194F52009A
:1029C0003B68134208D08022AB68520093422BD15F
:1029D000226D134323654CE080223B685200134371
:1029E0003B60FEF763FF80235B00029003933B682C
:1029F000039A1342E7D1FEF759FF029BC01A6428DD
:102A0000F5D9E8E600100240FF1FFFFFE65D000871
:102A100024000020FFFFFEFFFFFFFBFFFFE0FFFFA2
:102A2000FFFEFFFF00700040002B16D1236D534ABC
:102A300013402365236D524A13402365FEF736FF8A
:102A400007008022236D920013422AD0FEF72EFF4A
:102A50004C4BC01B9842F4D9BDE6A021C9008B4263
:102A60000BD18023216DDB000B432365236D1A43BB
:102A70002265FEF71BFF07000EE0236D3F4A13405F
:102A80002365236D3E4A1340A4E7FEF70FFF3D4B3D
:102A9000C01B984200D99EE68022236D920013420B
:102AA000F3D0019B012B00D06EE6A36B364A134096
:102AB000A36369E60C2E43D0344A022B2ED123683F
:102AC000802613402360FEF7F1FE0700B60423685A
:102AD00033421DD1E96AAB6AE2680B432C490A40D4
:102AE00013432A6B80251343E360802322685B0431
:102AF00013432360FEF7DAFE0600AD0423682B4281
:102B000000D045E6FEF7D2FE801B0228F6D962E629
:102B1000FEF7CCFEC01B0228D9D95CE623688025CD
:102B200013402360FEF7C2FE0600AD0423682B426B
:102B300000D12DE6FEF7BAFE801B0228F6D94AE640
:102B40001800012B00D1D9E58022E368A96A52025E
:102B50001A4001208A4200D0D0E5F022E96A9203AF
:102B60001A408A4200D0C9E5C02000040340286B07
:102B7000181A431E9841C0B2C0E5C046FFFEFFFFD1
:102B8000FFFBFFFF88130000FFFFFFEFFFFFFFFECB
:102B9000FFFF02FFF7B5061E019101D10120FEBD26
:102BA0000122514C0199236813408B4227D332688C
:102BB00093072FD4D30735D40123226801991A40F3
:102BC0008A4200D981E03268484C530700D584E03E
:102BD000130706D5E26833694549DB000A40134311
:102BE000E360FFF745FDE368424A1B061B0FD35C19
:102BF000D840414B18600020FEF724FECFE7236841
:102C0000019993430B43236023681340019A934235
:102C1000C4D1CCE7F0203549CB688343B068034387
:102C2000CB60C7E7314D72682B68022A19D19B032C
:102C3000B4D50321EB688B431343EB60FEF736FEFC
:102C400073680700022B19D10C22EB681340082B84
:102C5000B2D0FEF72BFE294BC01B9842F4D90320BB
:102C60009DE7032A02D19B01E3D497E7012A02D111
:102C70005B07DED492E79B05DBD48FE7032B0BD1F8
:102C80000C22EB681340934296D0FEF70FFE1B4BCD
:102C9000C01B9842F4D9E2E7012B10D00C22EB685C
:102CA000134289D0FEF702FE144BC01B9842F5D99F
:102CB000D5E7FEF7FBFD114BC01B9842CFD80C2285
:102CC000EB681340042BF4D176E722689A43226024
:102CD00022681A4200D176E760E7E36808490B40B2
:102CE000F1680B43E36073E70020024000100240EC
:102CF000FFC7FFFFE65D00082400002088130000E6
:102D0000FFF8FFFF044B054ADB685B055B0FD35CF4
:102D1000034A1068D840704700100240F65D000872
:102D200024000020044B054ADB689B045B0FD35C46
:102D3000034A1068D840704700100240F65D000852
:102D4000240000200368F7B505009B063BD58023CF
:102D500000214F4C5B05A26B00911A4204D1A26B7B
:102D60001343A3630123009380274A4E7F003368F7
:102D70003B424FD06868C023C02601002268B603DA
:102D80009B023040324019401E00904253D1236DC7
:102D9000334057D16968C0230A009B021A409A4207
:102DA00007D123683C480340C020800301400B4307
:102DB0002360236D1A43009B2265012B03D1A36B73
:102DC000364A1340A3632A68930706D50C2030497E
:102DD000CB6C8343A8680343CB64530706D52C49C7
:102DE0002F48CB6C0340E8680343CB64130706D538
:102DF00027492C48CB6C034028690343CB6400204F
:102E0000130617D5224A2849D36C0B4069690B4336
:102E1000D3640FE033683B433360FEF747FD019016
:102E200033683B42A6D1FEF741FD019BC01A6428DE
:102E3000F6D90320FEBD9942A9D1236801209B0346
:102E4000A5D5F7E78B42A5D02B689B06A2D580229B
:102E5000216D206D120302432265226D134B14482D
:102E60000B40024022652365CB0500D492E7FEF7B4
:102E70001DFD80270600BF00236D3B4200D089E77F
:102E8000FEF714FD0B4B801B9842F5D9D1E7C046E5
:102E90000010024000700040FFFFCFFFFFFFFFEF78
:102EA000FFF3FFFFFFCFFFFFFFFFF3FFFFFFFCFF7D
:102EB000FFFFF7FF88130000802210B50368D205DA
:102EC000904205D0104CA04202D0104CA0420FD12D
:102ED0007024A3434C682343904205D00A4A904291
:102EE00002D00A4A904203D1094A1340CA681343E8
:102EF000802293430A69134303608B68C3620B68A3
:102F000083620123436110BD0008014000140140A9
:102F1000FFFCFFFF012230B57325036A9343036270
:102F2000036A44688269AA430D682A430225AB43B9
:102F30008D68446082614A682B434263036230BDFE
:102F40001022036A30B593430362036A094C456853
:102F5000826914400A68120222432024A3431C0001
:102F60008B6845601B0182614A6823438263036268
:102F700030BDC046FF8CFFFF1F2310B50124194050
:102F80008C408A40036AA3430362036A1A430262C5
:102F900010BD70B504000120002C14D02500393577
:102FA0002B78DBB2002B05D12200383213702000C1
:102FB00001F0D0FD022320682B70211DFFF77CFF5C
:102FC000012300202B7070BD70B505000223393538
:102FD0002B700368084A196A0400114203D10121C9
:102FE0001A688A431A60200001F028FE0020383455
:102FF0002870207070BDC04611110000010002232E
:1030000039310B70036807209A680240062A03D002
:103010000122186802431A60012300200B707047D8
:1030200010B5040001220068FFF7A6FF07212368FE
:103030009A680A40062A03D0012219680A431A60D6
:10304000002010BD704770B504000120002C14D082
:10305000250039352B78DBB2002B05D12200383220
:1030600013702000FFF7EEFF022320682B70211D54
:10307000FFF722FF012300202B7070BD10B5FFF772
:10308000CFFF10BDF8B50500022338350C002978B4
:1030900007001800012925D03E000121393629708A
:1030A00033700C2A1AD81000FDF72EF807181818DC
:1030B0001D1818182F181818520021003868FFF72B
:1030C00029FF08223B6899690A4304219A619A6999
:1030D0008A439A619A69E1680A439A610123002050
:1030E00033702870F8BD21003868FFF729FF80226F
:1030F0003B68120199690A439A619A6926490A4014
:103100009A61E26899691202E6E773203B682349F5
:103110001A6A0A401A621A6A5F68D969814320688C
:1031200001431F481040A2685F601202D9616168C4
:103130000243D9631A620822D9690A430421DA6179
:10314000DA698A43DA61DA69E1680A43DA61C5E774
:103150003B6814491A6A14480A401A621A6A5F687E
:10316000D969014020680002014310481040A2685C
:103170005F601203D9616168024319641A62802298
:10318000D96912010A43DA61DA6903490A40DA614E
:10319000E268D9691202D8E7FFFBFFFFFFFEFFFFDD
:1031A000FFFDFFFFFFEFFFFFFF8CFFFFFFDFFFFFD4
:1031B000F0B5040002223834257803001000012DF8
:1031C00017D01D0001271B68393527702A709A68AF
:1031D000454802409A600A68402A00D16DE014D840
:1031E000102A0BD006D8002A08D0012300202B700B
:1031F0002070F0BD202A01D0302AF6D170219868C5
:10320000884369390A4302433DE0602A3DD017D81C
:10321000502AEAD14868CA68196A1E6A1201BE4378
:10322000F0271E629E69BE4332430A26B143014322
:103230009A61196270219A688A431100572221E02D
:10324000702A12D0802080018242CED19A6827480D
:103250004E6810408A68C968324309020A43024333
:103260009A6080229968D2010CE09A681F484E68E3
:1032700010408A68C968324309020A4302439A60CF
:10328000772299680A439A60AFE71026186A4A685D
:10329000B043C96818629E69154F09033E40314327
:1032A000A026186A99617021B043120102431A6284
:1032B0009A688A4311006722E4E74868CA68196A75
:1032C0001E6A1201BE43F0271E629E69BE4332434E
:1032D0000A26B14301439A61196270219A688A43B0
:1032E00011004722CEE7C0468800FFFFFF00FFFF26
:1032F000FF0FFFFF70B50400022238342578030069
:103300001000012D13D01D007026186839352A7061
:1033100042688368B2430E68496832438026B343EB
:103320000B4342608360012300202B70207070BD2E
:1033300070B505000120002D12D0242300246B67F6
:103340002B681A6882431A6028001C605C609C60CD
:1033500001F0E0FC2000EC676C67AC6770352C7006
:1033600070BD0000F8B504002569A26803682A430F
:103370006569C1692A431868764D0A4328400243AB
:103380001A605A687448754D0240E06802435A60FA
:10339000A069AB4201D0226A10439A68704E324055
:1033A00002439A606F4A934214D10C206E4BDA6C40
:1033B00002406E48805C80221202914200D08BE075
:1033C000082800D985E0FCF79FFE50585B847C8478
:1033D00084847F00AB4200D0B4E0C0218020624AE8
:1033E0000901D36CC0000B4083423BD003D8002BB3
:1033F0000AD001250DE08020000183420ED08B42CF
:10340000F7D18020000210E0FFF77CFC0025A842E5
:103410000BD10023280023666366F8BD1068544B67
:10342000C006C0171840534BC018032263685A43A4
:103430008242DED81A038242DBD30027020E010249
:103440005E0889197A41080011001A003B00FCF758
:103450002BFF494BC218494B9A42CAD823683D00FA
:10346000D860D6E7FFF704F9D0E7FFF74BFC6368B5
:1034700040005B08C01861680BE0FFF753FCF6E7FB
:1034800010251A68616815404808002D06D03C4B8D
:10349000C018FCF743FE002583B204E0394BC01886
:1034A000FCF73CFE83B21900374810398142A0D89E
:1034B0000F2118001B0788435B0F21680343CB6073
:1034C000A7E7FFF7D5F8D2E76368580880235B02C7
:1034D000D0E701250023E6E7082837D8FCF714FEDB
:1034E000050C0F362A3636362D00FFF70BFC6368C5
:1034F0005B08C01861680BE0FFF714FCF7E71025C4
:103500001A68616815404808002D0DD01F4BC0187F
:10351000FCF704FE002583B219001B4810398142D4
:1035200000D966E72168CAE7124BC018FCF7F6FD20
:1035300083B2F1E7FFF79CF8D9E763685808802366
:103540001B02D6E780231B029942C2D0012500232B
:10355000E2E7C046F369FFEFFFCFFFFF00480040FE
:10356000FFF4FFFF00440040001002404C5D0008E3
:1035700000E548FF0024F40000FDFFFFFFFC0F0002
:1035800000127A000048E801EFFF000000093D004A
:10359000436A30B5DA0706D50168284C4A682240EC
:1035A000846A22434A609A0706D50168244C4A6817
:1035B0002240C46A22434A605A0706D50168214C5A
:1035C0004A682240046B22434A601A0706D5016804
:1035D0001D4C4A682240446B22434A60DA0606D5F5
:1035E00001681A4C8A682240846B22438A609A06DA
:1035F00006D50168164C8A682240C46B22438A6053
:103600005A0610D50168134D4A68046C2A402243BB
:103610004A6080225203944205D14A680E4C2240EF
:10362000446C22434A601B0606D502680B49536866
:103630000B40816C0B43536030BDC046FFFFFDFF64
:10364000FFFFFEFFFFFFFBFFFF7FFFFFFFEFFFFF1F
:10365000FFDFFFFFFFFFEFFFFFFF9FFFFFFFF7FF12
:10366000F8B504000E0015001F002268D36933402E
:103670009B1B59424B41AB4201D000201BE0069BF3
:103680000133F3D0FEF712F9069BC01B984201D814
:10369000002BEAD1236808491A6803200A401A60FF
:1036A0009A68A331FF318A439A6020236367A36736
:1036B000002370342370F8BD5FFEFFFF73B5002652
:1036C0000400C667FEF7F2F8236805001B681B07B5
:1036D00015D423681B685B070AD580210E4B002296
:1036E0000093C9032B002000FFF7BAFF002811D177
:1036F000202300206367A367703420700BE08021D3
:10370000054B32000093890303002000FFF7A8FF58
:103710000028DED0032076BDFFFFFF0110B5041E98
:1037200001D1012010BD436F002B04D10200703283
:10373000137001F0A5FA242301212268636713683E
:1037400020008B431360FFF70DFE0128E9D0636A68
:10375000002B02D02000FFF71BFF236809495A689D
:1037600020000A4022215A609A688A439A600822FF
:1037700099680A439A60012219680A431A60FFF7A0
:103780009DFFCFE7FFB7FFFF002800D17047034B35
:10379000C046013B002BFBD10138F5E75E15000068
:1037A0000122034B40101860024B1A607047C0465C
:1037B000080000200400002010B5002801D0FFF709
:1037C000E3FF10BD8023244A9B00516B70B50B436F
:1037D00007215363214B224C5A6920008A435A61C6
:1037E000062259690A435A61FEF73EFA0A2120006F
:1037F000FEF784FA2000FEF7DFFA2000FEF734FA25
:103800000A212000FEF77AFA2000FEF7D5FA05001B
:103810002000FEF729FA0A212000FEF76FFA2000A7
:10382000FEF7CAFAFA220F4B1201954202DD00227E
:103830001A6070BD0122312DFADDFE22FF32954261
:1038400002DCFC3AFF3AF3E7074A954201DC032227
:10385000EEE70422ECE7C0460010024000240140DD
:10386000EC03002018020020B1070000F0B501248D
:1038700002200425234B89B0DA6A00AF2243DA62C2
:10388000DA6A002622407A607A68D96A0143D962EE
:10389000DA6A0240BA60BA68DA6A9E30AA43DA622B
:1038A00080230C225B00B918FB60C005FD3BBB61A7
:1038B0003E617C61FEF798FC0C220823BA18FB607D
:1038C0001100053B1048BB613E617C61FEF78CFC3A
:1038D0000E4B1E605E609E6072B6BFF34F8F032179
:1038E0000B4A13688B431C431460BFF34F8FBFF325
:1038F0006F8F00231B6883F308882B689847BD46A9
:1039000009B0F0BD001002400004005010E000E0DB
:103910000000014010B51248FEF7BAFB1148FEF74F
:103920004FF91148FFF704FD1048FFF74DFB104811
:10393000FEF7D0FDFEF732FEA0200E4CC0052100A0
:10394000FEF7FEFC21000C48FEF7FAFC21000B48B4
:10395000FEF7F6FCFDF762FFFFF788FF10BDC046DB
:103960005C020020EC0300206C03002030030020E8
:10397000A4020020FFFF00000004005000080050D7
:1039800030B599B0202200210CA801F04FFF14227D
:103990000021684601F04AFF1822002105A801F025
:1039A00045FF1749174A0B6800241A4080231B0162
:1039B00013430B6002230B9314938023DB021693B3
:1039C000802310220125DB030BA80F9217930E957D
:1039D0001594FEF78DFE0F232900009368460C3BDB
:1039E0000193029403940494FFF7D4F80A2305A8E2
:1039F0000593063B07930994FFF7A4F919B030BD6E
:103A000000700040FFE7FFFFF0B5FD4D93B02B6D58
:103A10009B0037D580232A6D01241B0413432B659B
:103A2000FDF728FFFFF7ACFF142200210DA801F0DD
:103A3000FDFEA020EB6A00222343EB62EB6A8021AB
:103A400023400293C005029BFEF7E8FCA020220061
:103A50004021C005FEF7E2FCC023A0200D93002307
:103A60000DA9C0050F9310930E94FEF7BDFB4023E4
:103A7000FA20E44A40001381DB185381FFF784FEEB
:103A8000FFF7F4FEFDF7F6FEFFF77AFF14220021A0
:103A90000DA801F0CBFE0422012602218024EB6A4E
:103AA00024021343EB62EB6AD74813400493049B50
:103AB000EB6A00223343EB62EB6A802733400593C5
:103AC000059BEB6AFF050B43EB62EB6A0B40069329
:103AD0002100069BFEF7A2FCA02000228021C00549
:103AE000FEF79CFC0D9400240DAB1900C6480E9601
:103AF0000F941094FEF778FB0823A0200D930DABD4
:103B00001900C0050E940F94FEF76EFB0DA801007E
:103B1000A0208023C0050D930E960F941094FEF7FD
:103B200063FB0DA80100B9480D960E940F96FEF7A1
:103B30005BFB2B6B220033432B632B6B2100334049
:103B400003930B20039BFEF711FA0B20FEF738FAC4
:103B5000210008220DA801F069FEAD4DAD4B2800F3
:103B60002B600623AB63AB19DC77AB1CDE77C2237B
:103B700004222C30FF33047028006A616B62EC630E
:103B80006F60AC602E61EC60AC622C63AC616C6306
:103B9000EC61FDF73DFF802040010E900DA928004B
:103BA0000D96FEF70DF99C4B0DA928000D93FEF71D
:103BB00007F99A4B0DA928000D93FEF701F99848D3
:103BC000984B994E43600C2306608460C460046186
:103BD00043618461C46104624462FFF79FFD8023F6
:103BE000924E934A3361603BF3618023326004223A
:103BF0009B0130007260B460F4607461B461336240
:103C0000FEF702FA402388488A498268134383609A
:103C10008023894A5B003000FEF76AFA21001022F7
:103C200009A801F003FE2100082207A801F0FEFD0B
:103C3000102221000DA801F0F9FD02217F4E804BDA
:103C40003000F36037607160B46034617461FFF715
:103C5000A0F9802009AF4001390009903000FFF73A
:103C6000A7FA07AF3000FFF7EEF939003000602700
:103C700007940894FFF73EFB04220D970DAF39001F
:103C80001092300022000DAF0E940F94FFF7FAF956
:103C9000042239003000FFF7F5F9300000F07CFF16
:103CA000684E694B30003360684BB4607360012329
:103CB0003461F3607461B461F4613462FEF7B4FBA3
:103CC00021003000FEF720FC0DAF21003000FEF790
:103CD00041FC21001022380009AF01F0A7FD0822A5
:103CE0002100380001F0A2FDFA23594FDB017B606F
:103CF000584E594B38003E60BC60FB603C617C61B3
:103D0000FFF747F980200DAB400119000D903800F6
:103D1000FFF74EFA09AB1900380009940A94FFF72F
:103D2000E9FA2100102209A801F080FD21000822F3
:103D300007A801F07BFD102221000DA801F076FDFF
:103D4000464E474B02213360FA2330009B00F3605C
:103D50007160B46034617461FFF71BF98020400129
:103D6000099009A801003000FFF722FA3000FFF7A0
:103D70006AF907A80100300007940894FFF7BAFA1F
:103D80006021642004220D910E900DA91092300044
:103D900022000F94FFF776F9300000F0FDFE2100BD
:103DA0002800FEF761F821002800FEF7ADF8210099
:103DB00002002800FEF7AEF8FFF704FD00F076FBE6
:103DC00000F0E2F82349274D4C6238002C60FFF7E1
:103DD00015F9234930004C62FFF710F9210030003B
:103DE000FFF74CF980220126064964204A813222DD
:103DF0001D4B1E4C1E601E4B0B4E1A603AE0C04617
:103E00000010024010000050000800500004005054
:103E1000EC030020002401400200000420000014F4
:103E20006C03002040420F00004400405C02002070
:103E30005800024024440040F804002030030020D1
:103E4000FF0F0000A402002000540040380F300093
:103E50004804002000080140FFFF0000F402002099
:103E600000140140F002002004000020080000209F
:103E700000000020334B344F0093344B20600193FB
:103E8000334B344A1A60019A2B68526A99B29142B4
:103E900013D0314A01332B601368002B0BDD013B3B
:103EA0001360002B07D1216811602C4A116800298A
:103EB0002CD07B63136000F0BBF8009B284A5B6842
:103EC00012689B18FF225B421340264A1360254B61
:103ED0001A68002A1FD12449244A0B6812689A42A2
:103EE00011D0F26912060ED5214A1268002A06D0B6
:103EF000204A2148D25CB262026801320260FF228D
:103F0000013313400B6000F009FBB9E71B4B1B6842
:103F10007B630123CEE7124819490368013AC95C63
:103F200001338C46FF210B4003600E4B1A60124A8E
:103F30001368002B01D0013BC8E7604601F002FC8A
:103F4000C5E7C04658000240001401400008014087
:103F500000300040AAAA0000040000202002002037
:103F60004C0200201C0200205002002054020020BD
:103F700028000020F8050020480200200000002052
:103F8000F80400207047000000210E4B10B51A689D
:103F90000D4B0E4C1A605A609A60DA601A615A61D1
:103FA0009A610B4B200019600A4B19600A4B19608B
:103FB0000A4B1960FFF762F804212000FFF75EF852
:103FC00010BDC0460C0000208404002030030020F7
:103FD000AC040020A0040020A8040020A4040020B9
:103FE0000022044B1860044B1A60044B01321A6023
:103FF0007047C0460C000020A40400201C000020D4
:104000000A4B18608023DB05002802D158639863AF
:1040100006E0002805DA00224042400058639A6317
:104020007047002240005A63F1E7C0462402002096
:10403000204B70B51B68002B28D01F4A1F4B1068FF
:104040001B681F4A1B1A1F48136002681E4C95000C
:1040500029591E4E591A0132316002602B51072A2C
:1040600001D1002202601A4A1068002B0FDB5C109D
:1040700020181060D81C126806280CD81548164C59
:104080001018A04207D80020FFF7BAFF70BD5C42AD
:104090006410001BEDE711480068434310480068B6
:1040A000484318180F4B1B6853431B12C0180E4B84
:1040B0001860E9E71C000020200000200C00002010
:1040C000A0040020AC04002084040020A8040020E8
:1040D000A4040020FF030000FE07000018000020D9
:1040E00010000020140000202402002010B5002041
:1040F000FFF786FF0022014B1A6010BD1C00002054
:104100008023034ADB0051680B4353607047C0466D
:1041100000540040024A034953680B405360704703
:1041200000540040FFFBFFFFFE21054B40005A6892
:104130008A435A605A6801310840104358607047FA
:1041400000540040064B07495A6800040A40FF210A
:104150005A605A6809040840104358607047C046C6
:1041600000540040FFFF00FFF8B50E001700FFF7F6
:10417000DBFFFFF7CFFF3000FFF7E4FF8023802055
:104180002C4C9B0462688001134363603B78013EC2
:10419000A36262687D1C02436260274AF1B26368D1
:1041A000034003D0013A002A03D10823002001274D
:1041B0000BE0C046F3E7A069384206D0002904D0DE
:1041C0002E780139A662C9B20135B8267600304290
:1041D00026D1013A002AEED11022134320221042A8
:1041E00021D0E1690A43E26180225200104204D0EA
:1041F000E1690A43E261022213431022104215D002
:10420000E3691A43E26180236268DB011343636060
:104210000120FFF7D1FAE269084B1343E36107E09D
:10422000002ADBD1D8E701221343DDE7002BEAD1D6
:10423000F8BDC04600540040FF0F0000381F0000CA
:10424000F8B50D001600FFF76FFFFFF759FF2800C4
:10425000FFF778FF802380212B4C9B046268890143
:104260001343636062680A436260284A63680B40D4
:1042700003D0013A002A2DD1082300212027B8209D
:104280004000014236D1013A002A25D110221343C1
:104290002022114231D0E0690243E26180225200C3
:1042A000114204D0E0690243E2610222134310226A
:1042B000114225D0E3691A43E26180236268DB0181
:1042C000134363600120FFF777FAE269104B134351
:1042D000E36117E0C046C9E70420A1690142CED0DE
:1042E000606A002D04D0013D3070EDB20136C6E7A2
:1042F0003B43C4E7002ACBD1C8E701221343CDE7F3
:10430000002BDAD1F8BDC04600540040FF0F00007A
:10431000381F000070B5FFF707FFFFF7FBFE012015
:10432000FFF710FF8023284C9B04626813436360EF
:1043300000238022A3626368920113436360234BCE
:104340006568154003D0013B002B04D10825B82136
:104350000022490002E0C046F2E7A2690A4228D1E1
:10436000013B002BF9D110231D4320231A4223D0F7
:10437000E1690B43E36180235B001A4204D0E169E9
:104380000B43E36102231D4310231A4217D0E26955
:104390001343E36104231D4380236268DB0113435D
:1043A00063600120FFF708FAE269094B1343E361F8
:1043B00007E0002BD9D1D6E701231D43DBE7002D11
:1043C000EAD1280070BDC04600540040FF0F000035
:1043D000381F00007FB500266B46C4B201AD6A46A7
:1043E000012120001E70FFF7BFFE2A000A212000D5
:1043F000FFF726FF6B461E70182369466846EA7968
:104400001A400A3313434B70297A8170687AE02589
:1044100028436D4641404B40191159408B104B4089
:1044200059104B40E870DB0703D45E235B421A430C
:104430006A706A4604212000FFF796FE7FBD30B502
:1044400085B06B46002501AC6A4601215E201D70D7
:10445000FFF78AFE22000A215E20FFF7F1FE6B467D
:104460001D70182369466846E2791A40163B1343CB
:104470004B70217A8170607AE02420436C46414081
:104480004B40191159408B104B4059104B40E07074
:10449000DB0703D47E235B421A4362706A46042121
:1044A0005E20FFF761FE05B030BD00000122164B13
:1044B00070B51968154E0A431A605A681449154CAC
:1044C0000A405A6014207481FFF776F90022100028
:1044D0001100FFF749FE1420FFF76EF95E20FFF789
:1044E00019FF0D4D0023002803D15E30FFF772FF46
:1044F0005A2302202B60FFF75FF934811420FFF765
:104500005BF9FFF79CFF70BD00540040100800509D
:10451000FFF7FFFF0080FFFF3C020020F7B5BE4D14
:10452000BE4E2B6832689B1A102B11D9FFF7DEFDA7
:104530003220FFF735F9BA4B2A689A4208D8BFF300
:104540004F8FB84BB84ADA60BFF34F8FC046FDE7D4
:10455000B64C23680C2B00D1D8E14CDC052B00D1E4
:1045600011E125DC022B00D1F9E012DC002B00D197
:10457000D9E0012B00D1EAE0AD4800F0CDFC206885
:1045800000F0D4FC00F05CFC0A2000F0ADFC00233D
:10459000E3E0032B00D1ECE0042BEDD1A54A9169B7
:1045A000194200D1DFE1A44B526A9A600523D4E09E
:1045B000082B00D1FBE00EDC062B00D1EDE0072B31
:1045C000DAD19C4B9A69520700D4CCE15A6A9A4BD3
:1045D0005A610823C1E00A2B00D149E100DCF0E078
:1045E000964B1968964B186801F082F9954B186044
:1045F00023680133B1E0832149008B4200D1BBE144
:1046000026DC81225200934200D19BE10EDC063968
:104610008B4200D18EE10221FF318B42ACD1854B20
:104620005B689B0400D59EE122609CE18225814A63
:104630006D000420AB4200D196E100DC8CE193696F
:10464000034200D18FE1526A7B4B2160DA608AE13C
:104650000A22FF32934200D1A0E111DC0821FF3190
:104660008B4200D191E101318B4200D084E7714B44
:104670009969490700D476E1596A6F4B9961D3E78C
:104680008021C022890092008B42CDD0934200D17C
:104690007DE7F73AFF3A934200D06DE766496A4AF0
:1046A000CD682B079B0F1360684A1068834200D1C6
:1046B00045E10F2013600A680B6916011A110240C8
:1046C0003243634E03403260B4464E682D013601DA
:1046D00033438E685F4F360101964E693B60304030
:1046E000019E0643019601985B4E3060F020000168
:1046F00028408D69594928430860802109010A42F0
:1047000003D057481218604602600B4202D0544A48
:104710009B183B60019B0B4200D110E1504A94462C
:10472000634433600BE15E20FFF7FEFCFFF7E8FC1B
:104730000720FFF707FD80223E4B920459680A4389
:104740005A608022596892010A435A6050E7394BF7
:104750005B689B0400D506E10223236003E1354B2F
:104760009A69520700D4FEE05A6A334B1A60032359
:10477000F3E704232F4A9169194200D1F3E0516A0B
:104780002D4A5160E9E72B4B9A69520700D4EAE0C1
:104790005A6A294BDA600623DFE7264B9A695207EB
:1047A00000D4E0E05A6A244B1A610723D5E7214B75
:1047B0009A69520700D4D6E05A6A1F4B9A610923BE
:1047C000CBE720231B4DAA691A4200D1AFE0802617
:1047D000EA6976001343EB61AB6933420ED021489E
:1047E00000F09AFBEB691E43EE611F4800F094FB5A
:1047F000FF2322689A4313000133ABE01026AB6914
:10480000334206D0194800F065FBEB693343EB6196
:10481000EBE70A23A1E7C046F002002030020020A7
:10482000E703000000ED00E00400FA05400200206C
:10483000D55D000800540040B8040020EC040020BE
:10484000B0040020E8040020280200202C020020F0
:10485000E0040020D4040020B4040020F40400206C
:1048600000F0FFFF9D5D00088C5D0008B05D000852
:104870005B495C4ACE6833079B0F13605A4A106845
:10488000834254D00F2013600A680B6915011A1176
:1048900002402A434D6803402D012B43534D3601FE
:1048A0002B608D68524F2D01AC464D693A6028400F
:1048B000654605434F4801900560F02000013040F7
:1048C0008E694D4930430860802109010A4202D0B7
:1048D0004A4812183A600B4203D0484A9B18434A90
:1048E00013602B000D4204D0444A9446019A63445D
:1048F00013603868FCF722FC414B18603B4B18688A
:10490000FCF71CFC3F4B18600B2326E73E4B186856
:10491000FCF706FF3D4B3E4AFCF75AFCFCF7CAFE8B
:1049200080231B01C0183B4B18602B683360802329
:104930005B0012E7384B1868002800D0F4E68023AB
:104940009B000AE7354B9A6952070CD55A6A244BEB
:104950001A600423FF3300E79369034203D0526ACD
:104960001F4B25605A60F7BD93690342FBD01C4B77
:10497000526A9A600623EDE7284B9A695207F2D5EE
:104980005A6A174B1A610823E4E7244B9A695207C5
:10499000E9D55A6A124B5A618423C9E720231F4D77
:1049A000AA691A42CBD08026EA6976001343EB61EC
:1049B000AB6933420DD01A4800F0AEFAEB691948E2
:1049C0003343EB6100F0A8FAFF2322689A4393195E
:1049D000C3E61026AB69334200D013E78523A7E76F
:1049E000B80400203402002038020020F004002027
:1049F000D8040020DC040020E404002000F0FFFFC5
:104A0000B0040020EC040020E8040020305F844063
:104A100083C8C96D200000203C02002000540040E3
:104A20009D5D00088C5D00080122054B596B0A430F
:104A30005A638022996B52050A439A637047C046B5
:104A40000010024010B5040086B01422002101A815
:104A500000F0ECFE0E4B22689A4216D180220D4BDC
:104A60009200596BA0200A4301215A63DA6AC005FB
:104A70000A43DA62DB6A0B400093009B232301A9FF
:104A80000193203B0293FDF7AFFB06B010BDC0467B
:104A90000024014000100240074B026810B59A4202
:104AA00009D1A020054A0649536BC0050B4053634A
:104AB0002321FDF745FC10BD0024014000100240F9
:104AC000FFFDFFFF10B5040086B01422002101A8ED
:104AD00000F0ACFE104B22689A421AD102210F4C12
:104AE0000F48E26A0A43E262E36A03220B40009342
:104AF000009BC0230193AE3B029301A9113B03939A
:104B000004920593FDF770FB8023A26B9B03134374
:104B1000A36306B010BDC046005400400010024020
:104B200000040050074B026810B59A4208D1064AAB
:104B30000649936B06480B409363C021FDF700FCC8
:104B400010BDC0460054004000100240FFFFDFFFD0
:104B50000004005080220368D205934205D101234E
:104B60000A4A916B0B4393637047094A934205D1FC
:104B70000423064A516B0B435363F5E7054A9342FE
:104B8000F2D1024A2023516BF5E7C04600100240E3
:104B9000000801400014014010B5040088B0142240
:104BA000002103A800F042FE80222368D205934230
:104BB00028D1012002241E4BD96A0143D962DA6A46
:104BC00003A902400092009ADA6AA0202243DA6226
:104BD000DB6AC00523400193019B80235B000393A4
:104BE000FB3B07930494FDF7FFFA0823039300238C
:104BF0001048049405930693079403A9FDF7F4FA6B
:104C000008B010BD0C4A9342FAD10120084AD16A7B
:104C10000143D162D36A03A903400293029B40235C
:104C2000A02003933E3B049303330793C005E5E7BD
:104C3000001002400004005000140140802203686C
:104C4000D205934205D101210A4A936B8B439363AA
:104C50007047094A934205D10421064A536B8B439E
:104C60005363F5E7054A9342F2D1024A2021536B80
:104C7000F5E7C04600100240000801400014014062
:104C800070B5050086B01422002101A800F0CEFD09
:104C90001C4B2A689A4233D180221B4B9202996B9B
:104CA000A0200A439A630122D96A04261143D962DB
:104CB000DB6AC00513400093009B122301A90293F5
:104CC0000F3B0392049301960596FDF78DFA0F4C66
:104CD0000F4B802223600023A360E3606361A36124
:104CE0002033E361802320009B0166602261236200
:104CF000FDF78AF9002801D0FFF744F9EC66A562B8
:104D000006B070BD00440040001002405C0200206C
:104D100058000240094B026810B504009A420CD1B9
:104D2000A020074A0749936BC0050B4093630421F9
:104D3000FDF706FBE06EFDF7ABF910BD0044004047
:104D400000100240FFFFFDFF7047FEE7704770470D
:104D500010B5FCF7A3FD10BD10B50248FDF7F9F939
:104D600010BDC0465C0200208022104B5200196822
:104D70000A431A60DA680E490A40DA601A680D4977
:104D80000A4001211A609A688A439A601A680A499F
:104D90000A401A60DA6809490A40DA6000221A619A
:104DA0008022074B12059A607047C04600100240EF
:104DB0000C40FF88F6FFF6FEFFFFFBFFFFFF02FF40
:104DC00000ED00E010B5144800F0A6F8134800F01C
:104DD000A3F8134800F0A0F8124800F09DF812481C
:104DE00000F09AF8114800F097F8114800F094F894
:104DF0000A2000F079F80F4800F08EF80E4800F015
:104E00008BF80E4B1868C0B200F0D8F800F018F814
:104E10000A2000F069F810BD075E0008235E000854
:104E2000635F0008275E0008335E0008365E0008F6
:104E30003F5E0008475E0008535E0008180200202D
:104E4000F7B5002001270600164B174A1B681268A9
:104E50009C460192154B164A1B681168154A9C45E1
:104E60000DD1002E02D06346104C2360002801D0E3
:104E70000F4B19604023D169194211D0F7BD80252D
:104E8000D4692C42EBD0019C002C04D00A4801319B
:104E9000C05C90623800FF22013313403E00DDE722
:104EA000C046E8E7540200202800002050020020FD
:104EB0004802002000440040F8050020034A04494D
:104EC0001368C8540133DBB21360704754020020EA
:104ED000F805002010B504002078002800D110BD8E
:104EE0000134FFF7EBFFF7E7084B1B68002B09D0F5
:104EF0008022074BD969114205D0064A986213688F
:104F0000013313607047C046F4E7C0462800002014
:104F1000004400404802002010B50400207800281A
:104F200000D110BD0134FFF7DFFFF7E770B50400D3
:104F30000F26144D030FE85CFFF7C0FF2316334024
:104F4000E85CFFF7BBFF23153340E85CFFF7B6FFD3
:104F500023143340E85CFFF7B1FF23133340E85CD0
:104F6000FFF7ACFF23123340E85CFFF7A7FF2311E4
:104F70003340E85C3440FFF7A1FF285DFFF79EFF58
:104F800070BDC0465E5E000870B50F2604000A4D75
:104F900003133340E85CFFF791FF23123340E85CD2
:104FA000FFF78CFF23113340E85C3440FFF786FFA6
:104FB000285DFFF783FF70BD5E5E000870B5064D8B
:104FC00003090400E85CFFF779FF0F231C40285D0C
:104FD000FFF774FF70BDC0465E5E0008F0B5FF25A8
:104FE000002601270B4B0C485B6802680B4CD3185A
:104FF00021685B422B40CB1A994204D1002E01D08C
:1050000021600260F0BD0029F8D001322A40013948
:105010003E00F1E7580002404C0200204802002008
:1050200010B5FFF70DFFFFF7CDFE2948FFF774FF1E
:10503000FFF7D4FF2748FFF76FFF2748FFF76CFF04
:10504000FFF7CCFF2548FFF767FF2548FFF764FF10
:10505000FFF7C4FF234B1B68002B02D02248FFF749
:105060005BFF0A20FFF740FFFFF7B8FF1F48FFF77D
:1050700053FF1F48FFF750FF0A20FFF735FFFFF7E8
:10508000ADFF1C48FFF748FF1B48FFF745FF0A200C
:10509000FFF72AFFFFF7A2FF1848FFF73DFFFFF7D2
:1050A0009DFF1748FFF738FF0A20FFF71DFFFFF7A6
:1050B00095FF1448FFF730FF1348FFF72DFF134803
:1050C000FFF72AFF0A20FFF70FFFFFF787FF10BD4A
:1050D000665F00087B5F0008B05F0008DD5F0008C6
:1050E000176000083C02002051600008886000083A
:1050F000AF600008DE6000080B6100083661000840
:105100006F610008A3610008D2610008F161000826
:10511000F7B50122374B1968914319608B2189003B
:10512000D960A02118684901014319601968324803
:10513000114319600021314B1B68446A9DB25E1C0B
:10514000A5421ED1002901D02C4A13600024012061
:1051500025002B4A2949126809680194002B13D1B4
:10516000002D01D0254B1960002C01D0244B1A6072
:10517000BFF34F8F234B244ADA60BFF34F8FC046F3
:10518000FDE733001100D8E7204E214F37601A4E5B
:105190008FB2766AB74211D01F250131294205D15D
:1051A00040271C4D2E683E421BD06F81019ECD1AB8
:1051B0003F2E19DC184EB54219D80500FF27174EAF
:1051C0007668961976423E42C8D0154CA65C0132EC
:1051D0003A400400792EC1D1019B013301930B00A9
:1051E000BCE740262E81E1E7FA26F600E3E705005A
:1051F0000023E3E70044004000080140F0020020E3
:105200004C02002000ED00E00400FA0500300040F0
:10521000AAAA00001000005030750000580002409B
:10522000F8040020F0B5C64A0378040010681A009C
:10523000303AC3B0824208D02A2B51D1C14DC24E60
:1052400040002E60FEF7B8FA2E60651C290002A807
:1052500000F0F4FA02A800F00AFB02AB1B782C2B3A
:1052600003D1FA208000FEF7A7FA02AB1B782E2BA1
:105270004AD100240A27B54AD333516BFF330B437D
:1052800053630721B24BB3485A6903268A435A61D4
:105290005A6922435A61FFF71DFEE0B2FFF78EFE06
:1052A000AD4D013E2800FCF7DFFC39002800FCF77B
:1052B00025FD2800FCF780FD0190A848FFF70AFEB5
:1052C0000198FFF761FE002EEAD138000134FFF7A4
:1052D000F5FD082CD5D12800FCF7F2FC43B0F0BD59
:1052E0006378422BFAD1A3784F2BF7D1E3784F2B79
:1052F000F4D12379542BF1D163794C2BEED1A379DE
:105300000A2BEBD1FFF704FF0322954902A800F016
:105310009DFA0322002840D102AB9249981800F070
:1053200095FA002805D1FEF7E1FE8F48FFF7D2FD80
:10533000D4E702AB05228D49D81C00F087FA00287B
:1053400008D1FEF7D3FE8023894ADB055A638948DA
:105350009A63EBE71F2123796079874A0B40084065
:10536000D35C105C1B0300021B18A0790840105C82
:1053700000011B18E0790140545C1C197F4B9C42D2
:1053800009DC2000FEF72CFE7D48FFF7A3FD20007E
:10539000FFF7FAFD24E07B48C8E77B4902A800F04C
:1053A00055FA002804D1FFF74BFDFFF70BFD95E7F9
:1053B0000222764902A800F049FA002814D1704868
:1053C000FFF788FD724B1868FFF7DEFD2820FFF716
:1053D00075FD704B1868FFF7D7FD2920FFF76EFDAC
:1053E0000A20FFF76BFD79E76B4B1B68002B1AD087
:1053F00002226A4902A800F029FA002813D168485D
:10540000FFF768FD674B1868FFF7BEFD2D20FFF71B
:1054100055FD654B1868FFF7B7FD2D20FFF74EFDD2
:10542000624B1868B4E70222614902A800F00EFA44
:10543000002836D1E3782B2B06D1FEF7B1F94022B4
:105440005C4B5D485A8171E72D2B06D1FEF7A8F918
:105450004022584B59481A8168E72E2B04D1FA2074
:10546000FEF79EF9564861E756483D2B00D05DE7B0
:105470001F2123796079404A0B400840D35C105CBF
:105480001B0300021B18A0790840105C00011B18C8
:10549000E0790140545C1C192000FEF781F94A486C
:1054A00073E70222494902A800F0D0F900282CD164
:1054B0001F216379A079304A0B400840D35C105C0F
:1054C0001B0300021B18E0790840105C00011B1848
:1054D000207A0140525C9B1802AA9278502A06D189
:1054E0003B4C3C482360FFF7F5FC206850E7492A15
:1054F00003D1394C39482360F5E73948442A00D0B4
:1055000014E7384C38482360EDE70222374902A8F7
:1055100000F09CF900286DD13548FFF7DBFC2C4BDF
:105520001868FFF731FD2D20FFF7C8FC2A4B1868DB
:10553000FFF72AFD2D20FFF7C1FC2A4B71E7C0467B
:105540001802002000300040AAAA0000001002400B
:10555000002401408E5E0008EC030020915E0008EC
:10556000955E0008995E00089D5E0008A55E000833
:10557000FFFF0000AB5E00086E5E0008FF0F00003A
:10558000B75E0008BB5E0008CC5E0008D05E000875
:10559000200000200C0000203C020020D35E000808
:1055A000D65E0008E0040020D4040020B4040020EB
:1055B000DA5E000810000050DD5E0008E25E0008C0
:1055C000E75E0008EF5E0008EC5E0008015F00087F
:1055D00018000020045F000814000020095F000884
:1055E000135F0008100000200E5F0008255F000810
:1055F000285F00080222414902A800F027F9061E90
:105600000BD1E3783E4C2B2B03D12A3B23603D4842
:105610008CE6FFF715FC266060E605223A49280073
:1056200000F014F900281BD1384C394D2560FEF7E5
:10563000E7FCFFF705FC3748FFF76EFCFFF700FCBF
:105640008023354A2560116D1B040B431365BFF39E
:105650004F8F324B324ADA60BFF34F8FC046FDE7BF
:1056600005223049280000F0F1F800281FD1FEF78C
:10567000C7FCFFF7E5FB2C48FFF74EFCFFF7E0FB0C
:105680003220FEF799F8FFF7DBFB204B274A1A6020
:10569000274A1A6007225A60063A9A60DA68002A96
:1056A00003D11B4A1A60C046FDE7C046F6E7062252
:1056B0002049280000F0CAF800280FD1FEF7A0FC0E
:1056C000FFF7BEFB1C48FFF727FCFFF7B9FB3220B2
:1056D000FEF772F8FFF7B4FBFEF71CF90222174938
:1056E000280000F0B3F8002802D1FFF799FCF5E597
:1056F0001348FFF7EFFB280018E6C0462C5F0008B0
:10570000280000202F5F0008345F000800300040B0
:10571000AAAA00003A5F00080010024000ED00E075
:105720000400FA05425F0008525F0008CCCC00007C
:1057300055550000485F00084F5F00085F5F000894
:10574000625F000870B5104C23680A2801D00D284C
:105750000BD10A2200250D48C2549A1CC31822609E
:105760005D70FFF75FFD256070BD082804D1002B38
:10577000FAD0013B2360F7E7FD2BF5DC5A1C2260D1
:10578000024AD054F0E7C04644020020F806002048
:105790000D488546002103E00C4B5B584350043113
:1057A0000B480C4B42189A42F6D30B4A02E00023F6
:1057B00013600432094B9A42F9D3FFF7D5FA00F08F
:1057C00011F8FEF721F9FEE7FF1F002060630008D3
:1057D00000000020FC010020FC010020F807002050
:1057E000FEE7000070B500260C4D0D4C641BA410A4
:1057F000A64209D1002600F01DFA0A4D0A4C641B8E
:10580000A410A64205D170BDB300EB5898470136ED
:10581000EEE7B300EB5898470136F2E7586300080B
:1058200058630008586300085C63000803001218FE
:10583000934200D1704719700133F9E703000A78E9
:1058400001311A700133002AF9D17047002330B5B5
:105850009A420AD0013AC45CCD5CAC4204D1934276
:1058600002D00133002CF6D1631B180030BDF8B50F
:105870000500040003262778002F01D12800F8BD79
:1058800000F00AF8C01942783240022A00D1203FC5
:1058900027700134EFE70000044B1B681B6A002BE4
:1058A00000D1034BEC3318687047C0462C00002031
:1058B0009000002082B0002900D101A9101E06D05E
:1058C000002B06D013780B601078431E984102B06D
:1058D000704702204042FAE70B1E04D0FF2A04D989
:1058E0008A2303608B3B180070470A700123FAE794
:1058F00010B500F001F810BDF7B5FF254A00019181
:105900005208ED05AA4204DC430007005B08AB42E5
:1059100002DDFAF7ABFDFEBDFE24A405A14202D1D3
:1059200000F072F8F7E702268C173440C60F3443B4
:10593000002B05D1022C50D0032CECD12948EAE7EA
:10594000002A03D1002F4ADA2748E4E7AA4217D1F8
:1059500093420BD1022C05D0032C05D0012C3AD157
:105960002248D8E72248D6E72248D4E7022C34D090
:10597000032CE3D00020012CCDD180200006CAE703
:10598000AB42DFD09B1ADB153C2B14DC002901DA7B
:105990003C3312DBFAF704FF00F048F900F034F86A
:1059A000012C0CD0022C0ED0002CB4D01249FAF7E6
:1059B0005DFD12490CE01248F2E70020F0E7802379
:1059C0001B06C018A7E70C49FAF750FD011C0B484D
:1059D000FBF7F0F99FE70B489DE708489BE708486D
:1059E00099E7C046DB0F49C0DB0FC9BFDB0F49BFDA
:1059F000E4CB1640E4CB16C02EBDBB33DB0F4940D1
:105A0000DB0FC93FDB0F493FF7B5714B4500041C65
:105A100001906D089D420FDDFF23DB059D4204DDF3
:105A2000011CFAF723FD041C04E0019B002B00DCA1
:105A3000CBE0684C201CFEBD674B9D420EDC674BE3
:105A40009D4208DC6649FAF711FDFE218905FAF747
:105A500017FC0028EED101256D421BE000F0E6F8AE
:105A6000604B041C9D427BDC5F4B9D4267DC011C4C
:105A7000FAF7FCFCFE218905FBF79CF98021051C47
:105A8000C905201CFAF7F2FC011C281CFAF788FE55
:105A90000025041C211C201CFBF75AF8011C071CC4
:105AA000FBF756F85149061CFBF752F85049FAF734
:105AB000DDFC311CFBF74CF84E49FAF7D7FC311CE2
:105AC000FBF746F84C49FAF7D1FC311CFBF740F8DC
:105AD0004A49FAF7CBFC311CFBF73AF84849FAF788
